:020000040800F2
:1000000000500020F91300081B0700081D07000816
:100010001F07000821070008230700080000000050
:10002000000000000000000000000000250700089C
:100030002707000800000000290700082B07000818
:10004000411400084114000841140008411400083C
:10005000411400084114000841140008411400082C
:10006000411400084114000841140008411400081C
:10007000411400084114000841140008411400080C
:1000800041140008411400084114000841140008FC
:1000900041140008411400084114000841140008EC
:1000A00041140008411400084114000841140008DC
:1000B00041140008411400084114000841140008CC
:1000C00041140008411400084114000841140008BC
:1000D00041140008411400084114000841140008AC
:1000E00041140008411400084114000800000000F9
:1000F0000000000000000000000000000000000000
:0C01000000000000000000005FF808F1A3
:10010C0010F8012B11F8013B012A28BF9A42F7D0B5
:10011C00D01A70470348044B834202D0034B03B1FF
:10012C00184770470C0000200C0000200000000055
:10013C000548064B1B1AD90F01EBA301491002D03D
:10014C00034B03B1184770470C0000200C00002033
:10015C000000000010B5064C237843B9FFF7DAFF16
:10016C00044B13B10448AFF300800123237010BD7E
:10017C0010000020000000009C14000808B5054B7E
:10018C001BB105490548AFF30080BDE80840FFF7F7
:10019C00CFBF00BF00000000140000209C1400081A
:1001AC0070B50646012402E004EB84046400B6FB3F
:1001BC00F4F3092BF8D8B6FBF4F20A4DA5FB0213A5
:1001CC00DB0803EB8303A2EB4303DBB203F1300048
:1001DC00C0B200F033FA2346A5FB0445EC08092B0A
:1001EC00E9D870BDCDCCCCCC10B5041E03DB2046B9
:1001FC00FFF7D6FF10BD2D2000F020FA6442F6E781
:10020C0038B50546082912D80C4602E0373000F004
:10021C0015FA74B1013CE4B2A00025FA00F000F02C
:10022C000F000928F2DC303000F008FAF1E708245E
:10023C00EFE738BD10B504460078A0F12003DBB21F
:10024C005E2B0ED90D280FD00A2814D05C2000F09C
:10025C00F5F9782000F0F2F902212078FFF7D0FFB1
:10026C0010BD00F0EBF9FBE75C2000F0E7F9722021
:10027C0000F0E4F9F4E75C2000F0E0F96E2000F007
:10028C00DDF9EDE710B5044620B906E02046FFF78E
:10029C00D1FF01342378002BF8D110BD064B186028
:1002AC0000225A601A615A619A61DA611A625A62C2
:1002BC009A60DA60704700BF3000002010B50D2046
:1002CC0000F0BCF90A2000F0B9F91A48FFF7DAFF80
:1002DC000D2000F0B3F90A2000F0B0F9164C60695B
:1002EC00FFF782FF1548FFF7CDFFA069FFF77CFFF2
:1002FC001348FFF7C7FFE069FFF776FF1148FFF7D8
:10030C00C1FF0D2000F09AF90A2000F097F9A369BB
:10031C005BB90D48FFF7B6FF0D2000F08FF90A20EE
:10032C0000F08CF9044B986910BD0848FFF7AAFF40
:10033C00F2E700BFD414000830000020CC140008F1
:10034C00C0140008B4140008F4140008EC140008DD
:10035C0010B504460948FFF795FF601CFFF720FF16
:10036C000748FFF78FFF074B9868FFF719FF0D2021
:10037C0000F064F90A2000F061F910BDF8140008CF
:10038C0008150008F8000020F8B57C4B00221A6014
:10039C005A601A61DA6001229A60904200F0E8809B
:1003AC0006460F46154676E07548FFF76BFF0D20A5
:1003BC0000F044F90A2000F041F90D2000F03EF95C
:1003CC000A2000F03BF96F48FFF75CFF0D2000F0AE
:1003DC0035F90A2000F032F90D2000F02FF90A202F
:1003EC0000F02CF96848FFF74DFF0D2000F026F9BE
:1003FC000A2000F023F96548FFF744FF0D2000F0B8
:10040C001DF90A2000F01AF96148FFF73BFF0D2097
:10041C0000F014F90A2000F011F95E48FFF732FFE2
:10042C000D2000F00BF90A2000F008F95A48FFF7EC
:10043C0029FF0D2000F002F90A2000F0FFF85748C0
:10044C00FFF720FF0D2000F0F9F80A2000F0F6F875
:10045C005348FFF717FF0D2000F0F0F80A2000F0CA
:10046C00EDF80D2000F0EAF80A2000F0E7F84D480E
:10047C00FFF708FF0D2000F0E1F80A2000F0DEF88D
:10048C000120F8BD48492046FFF73AFE00BB3B4B24
:10049C0001225A601544B54268DA57F825404349A1
:1004AC002046FFF72DFE00283FF47EAF4049204642
:1004BC00FFF726FE00283FF477AF3E492046FFF7B2
:1004CC001FFE0028DED12D4B01221A601544E2E7F5
:1004DC0039492046FFF714FE40B96B1C9E4249DD9A
:1004EC0057F82320254B1A610235D4E733492046AF
:1004FC00FFF706FE40B96B1C9E423DDD57F82320EA
:10050C001E4BDA600235C6E72D492046FFF7F8FD91
:10051C0040BB1A4B02229A606B1C9E4224DD07EBF7
:10052C00830457F823201278303AD2B2092A01D921
:10053C001D46B0E70022114B9A600BE00F498B6807
:10054C0003EB83035B008B602068805C30380344D2
:10055C008B60013223689B5C303BDBB2092BEDD9FD
:10056C00023598E7013596E71D4694E7002088E7A9
:10057C00002086E7012084E7012082E7F8000020B4
:10058C001C1500083C1500086C1500087C150008AB
:10059C00C41500080C160008501600089416000824
:1005AC00C8160008F01600083817000810150008C7
:1005BC0014150008341700083C17000840170008F1
:1005CC004417000870B50D461646FFF7DDFEE0B97E
:1005DC00002405E00A2000F031F8FFF76FFE01342B
:1005EC000A4B9B68A3420ED92868FFF757FE20469A
:1005FC00FFF7AEFEB047054B1B68002BEAD10D2070
:10060C0000F01CF8E6E7024B986970BDF80000207A
:10061C003000002082B0064B9A6942F004029A61C5
:10062C009B6903F004030193019B02B0704700BF68
:10063C000010024008B500F069F808BD00B583B0A1
:10064C008DF80700642301220DF10701024800F028
:10065C006DFE03B05DF804FB0C01002072B6FEE7E2
:10066C0008B50A480A4B03604FF4E133436000239A
:10067C008360C36003610C2242618361C36100F03B
:10068C0025FE00B908BDFFF7E9FF00BF0C010020F3
:10069C000038014000B591B02822002106A800F0D6
:1006AC00EFFE00230193029303930493059302231B
:1006BC00069301230A9310230B9306A800F0F2F87B
:1006CC0068B90F23019300210291039104910591C4
:1006DC0001A800F019FB20B911B05DF804FBFFF77D
:1006EC00BDFFFFF7BBFF000008B500F0A1F8FFF756
:1006FC00D1FFFFF78FFFFFF7B3FF034A0021084636
:10070C00FFF760FF08BD00BF410600087047FEE719
:10071C00FEE7FEE7FEE7FEE770477047704708B557
:10072C0000F098F808BD000082B00E4B9A6942F0B8
:10073C0001029A619A6902F001020092009ADA6948
:10074C0042F08052DA61DB6903F080530193019B24
:10075C00054A536823F0E06343F00073536002B022
:10076C00704700BF001002400000014010B586B079
:10077C00002302930393049305930268174B9A4248
:10078C0001D006B010BD03F558439A6942F480427B
:10079C009A619A6902F480420092009A9A6942F036
:1007AC0004029A619B6903F004030193019B4FF4CB
:1007BC00007302930223039303230593084C02A9AD
:1007CC00204600F07DFB4FF48063029300230393DB
:1007DC00049302A9204600F073FBD2E700380140D5
:1007EC000008014010B504460E4B1A784FF47A738A
:1007FC00B3FBF2F30C4A1068B0FBF3F000F0C4FC4E
:10080C0068B90F2C01D901200AE0002221464FF0D3
:10081C00FF3000F0A9FC054B1C60002000E001201B
:10082C0010BD00BF000000200800002004000020C4
:10083C0008B5074A136843F010031360032000F057
:10084C0081FC0F20FFF7CEFFFFF76EFF002008BDE5
:10085C0000200240034A1168034B1B780B441360C1
:10086C00704700BF5401002000000020014B1868A5
:10087C00704700BF5401002082B0084B1B68084A27
:10088C00A2FB03235B0A00FB03F3019300BF019B54
:10089C005A1E0192002BF9D102B0704708000020BB
:1008AC00D34D6210002800F0F18170B582B004467F
:1008BC00036813F0010F2CD0994B5B6803F00C0309
:1008CC00042B1DD0964B5B6803F00C03082B12D045
:1008DC006368B3F5803F41D0002B55D103F18043C1
:1008EC0003F504331A6822F480321A601A6822F471
:1008FC0080221A6037E08A4B5B6813F4803FE7D0A4
:10090C00874B1B6813F4003F03D06368002B00F087
:10091C00BF81236813F0020F75D0814B5B6813F015
:10092C000C0F5FD07E4B5B6803F00C03082B54D08C
:10093C002369002B00F08A807A4B01221A60FFF7A2
:10094C0095FF0546764B1B6813F0020F75D1FFF728
:10095C008DFF401B0228F5D903209EE1704A1368D5
:10096C0043F480331360636843B3FFF77FFF05469E
:10097C006B4B1B6813F4003FCBD1FFF777FF401B89
:10098C006428F5D9032088E1B3F5A02F09D0644B76
:10099C001A6822F480321A601A6822F480221A60D3
:1009AC00E1E703F18043A3F53C331A6842F480225B
:1009BC001A601A6842F480321A60D4E7FFF756FFC7
:1009CC000546574B1B6813F4003FA2D0FFF74EFFB0
:1009DC00401B6428F5D903205FE1514B5B6813F48D
:1009EC00803FA5D14E4B1B6813F0020F03D0236937
:1009FC00012B40F04F814A4A136823F0F8036169D8
:100A0C0043EAC1031360236813F0080F33D0A369C2
:100A1C00002B5CD0434B0122C3F88024FFF726FF48
:100A2C0005463F4B5B6A13F0020F21D1FFF71EFF07
:100A3C00401B0228F5D903202FE1394A136823F013
:100A4C00F803616943EAC1031360DCE7354B00220C
:100A5C001A60FFF70BFF0546314B1B6813F0020FB2
:100A6C00D1D0FFF703FF401B0228F5D9032014E176
:100A7C000120FFF701FF236813F0040F00F09680AC
:100A8C00274BDB6913F0805F34D1254BDA6942F0D8
:100A9C008052DA61DB6903F080530193019B0125DD
:100AAC00214B1B6813F4807F26D0E368012B3DD0CB
:100ABC00002B53D103F1804303F504331A6A22F05F
:100ACC0001021A621A6A22F004021A6233E0154B10
:100ADC000022C3F88024FFF7C9FE0546104B5B6A61
:100AEC0013F0020FC7D0FFF7C1FE401B0228F5D947
:100AFC000320D2E00025D3E70B4A136843F480733C
:100B0C001360FFF7B3FE0646074B1B6813F4807F98
:100B1C00CBD1FFF7ABFE801B6428F5D90320BCE0DA
:100B2C000010024000004242007000405F4A136A0D
:100B3C0043F001031362E36833B3FFF797FE0646F5
:100B4C005A4B1B6A13F0020F2FD1FFF78FFE801B3D
:100B5C0041F288339842F3D903209EE0052B09D04B
:100B6C00524B1A6A22F001021A621A6A22F004022B
:100B7C001A62E0E74D4B1A6A42F004021A621A6AD2
:100B8C0042F001021A62D6E7FFF770FE0646474BA9
:100B9C001B6A13F0020F08D0FFF768FE801B41F2AE
:100BAC0088339842F3D9032077E0E5B9E369002B49
:100BBC0072D03E4A526802F00C02082A56D0022B20
:100BCC0017D03B4B00221A66FFF750FE0446374BFA
:100BDC001B6813F0007F47D0FFF748FE001B02286C
:100BEC00F5D9032059E0314AD36923F08053D361FE
:100BFC00DCE72F4B00221A66FFF738FE05462B4B1D
:100C0C001B6813F0007F06D0FFF730FE401B022854
:100C1C00F5D9032041E0236AB3F5803F1AD023496C
:100C2C004B6823F47413226A606A024313434B60CB
:100C3C001F4B01221A66FFF719FE04461B4B1B685B
:100C4C0013F0007F0ED1FFF711FE001B0228F5D91F
:100C5C00032022E0154A536823F40033A1680B43A8
:100C6C005360DCE7002018E0002016E0012B16D0C2
:100C7C000E4B5B6803F48031226A914211D103F46C
:100C8C007013626A93420ED1002006E00120704777
:100C9C00012002E0012000E0002002B070BD012024
:100CAC00FBE70120F9E70120F7E700BF0010024045
:100CBC00000042420F4B5B6803F00C02082A01D083
:100CCC000D487047C3F383420C49885C13F4803F92
:100CDC000BD0084B5B68C3F34043094AD35C064A0C
:100CEC0002FB00F0B0FBF3F07047064B03FB00F087
:100CFC00704700BF0010024000127A004C17000829
:100D0C004817000800093D00002800F0A08070B5CD
:100D1C000D460446524B1B6803F007038B420BD263
:100D2C004F4A136823F007030B431360136803F057
:100D3C0007038B4240F08D80236813F0020F17D00D
:100D4C0013F0040F04D0474A536843F4E063536034
:100D5C00236813F0080F04D0424A536843F46053DD
:100D6C005360404A536823F0F003A1680B4353606F
:100D7C00236813F0010F31D06368012B20D0022BB4
:100D8C0025D0384A126812F0020F64D035494A68EF
:100D9C0022F0030213434B60FFF768FD0646314B0C
:100DAC005B6803F00C036268B3EB820F16D0FFF79D
:100DBC005DFD801B41F288339842F0D9032045E059
:100DCC00284A126812F4003FE0D101203EE0254A87
:100DDC00126812F0007FD9D1012037E0204B1B683C
:100DEC0003F00703AB420AD91D4A136823F007032B
:100DFC002B431360136803F00703AB422DD1236818
:100E0C0013F0040F06D0174A536823F4E063E1682B
:100E1C000B435360236813F0080F07D0114A536833
:100E2C0023F46053216943EAC1035360FFF742FF87
:100E3C000C4B5B68C3F303130B4AD35CD8400B4BCE
:100E4C0018600B4B1868FFF7CDFC002070BD01201B
:100E5C0070470120FAE70120F8E70120F6E700BF10
:100E6C000020024000100240641700080800002017
:100E7C0004000020014B1868704700BF08000020D8
:100E8C0008B5FFF7F7FF044B5B68C3F30223034A73
:100E9C00D35CD84008BD00BF001002405C170008AE
:100EAC0008B5FFF7E7FF044B5B68C3F3C223034AA3
:100EBC00D35CD84008BD00BF001002405C1700088E
:100ECC0070B582B00024A446A1E07E4DAB4214D094
:100EDC000CD8A5F58015AB420FD005F57025AB42AB
:100EEC000BD0A5F58015AB4210D106E0764DAB4288
:100EFC0003D005F58035AB4208D18B68002B50D060
:100F0C00012B49D04261082400E0CC68BEF1FF0FF0
:100F1C0049D806464FEA8C0233680F25954023EAE0
:100F2C00050304FA02F2134333604B6813F0805F3D
:100F3C006BD0664B9A6942F001029A619B6903F08F
:100F4C0001030193019B4FEA9C02951C604B53F8E3
:100F5C0025600CF00305AD000F23AB4026EA030619
:100F6C005C4B984226D003F58063984200F08C804D
:100F7C0003F58063984200F0898003F58063984202
:100F8C0016D0042317E0CC680434BFE7CC680834CF
:100F9C00BCE7CC680C34B9E702610824B6E700243E
:100FAC00B4E70424B2E7061DACF108029200B3E7E3
:100FBC00032300E00023AB4033430232444D45F899
:100FCC0022304B6813F4801F62D0434A936843EA83
:100FDC000E0393604B6813F4001F5FD03E4AD36836
:100FEC0043EA0E03D3604B6813F4003F5CD03A4ADB
:100FFC00536843EA0E0353604B6813F4803F59D097
:10100C00354A136843EA0E0313600CF1010C0B68AC
:10101C0033FA0CF254D0012202FA0CF203EA020E5B
:10102C0032EA0303F1D14B68122B3FF64EAF122B71
:10103C003FF66CAF01A555F823F000BF070F000871
:10104C00170F0008990F0008AB0F0008190F0008C4
:10105C00190F0008190F0008190F0008190F0008C4
:10106C00190F0008190F0008190F0008190F0008B4
:10107C00190F0008190F0008190F0008190F0008A4
:10108C00930F00089F0F0008012394E7022392E7B7
:10109C00114A936823EA0E0393609BE70E4AD368C8
:1010AC0023EA0E03D3609EE70B4A536823EA0E0330
:1010BC005360A1E7084A136823EA0E031360A4E700
:1010CC0002B070BD00002210000031100010024070
:1010DC00000001400008014000040140002808DB2A
:1010EC000901C9B200F1604000F5614080F80013BD
:1010FC00704700F00F000901C9B2014B1954704739
:10110C0014ED00E000B500F00700C0F1070CBCF1D5
:10111C00040F28BF4FF0040C031D062B0FD9C31E60
:10112C004FF0FF3E0EFA0CF021EA000199400EFA46
:10113C0003FE22EA0E0241EA02005DF804FB0023E2
:10114C00EEE70000074AD36823F4E0631B041B0C92
:10115C00000200F4E060034343F0BF6343F4003348
:10116C00D360704700ED00E010B50446054BD8681D
:10117C00C0F30220FFF7C6FF01462046FFF7AEFF83
:10118C0010BD00BF00ED00E00138B0F1807F0BD244
:10119C004FF0E0235861054AF02182F8231000201B
:1011AC00986107221A6170470120704700ED00E03A
:1011BC007047000010B504460268136923F44053CD
:1011CC00C1680B43136183680269134342691A4374
:1011DC000168CB6823F4B05323F00C031343CB60AA
:1011EC000268536923F4407381690B4353610268AD
:1011FC00134B9A4220D0FFF743FE024602EB8202C9
:10120C0002EB820263689B00B2FBF3F20D48A0FB79
:10121C0002314909642303FB11231B013233A0FB68
:10122C0003035B0903F0F00202EB011203F00F035E
:10123C00216813448B6010BDFFF732FE0246DDE7D8
:10124C00003801401F85EB512DE9F84305460F4648
:10125C0016469946DDF820802B681C6837EA040492
:10126C000CBF01240024B4422DD1B8F1FF3FF3D0C0
:10127C00B8F1000F05D0FFF7F9FAA0EB09004045D3
:10128C00EAD92A6802F10C0353E8003F23F4D07327
:10129C000C3242E800310029F3D12A6802F1140320
:1012AC0053E8003F23F00103143242E800310029D7
:1012BC00F3D1202385F8413085F84230002385F89E
:1012CC004030032000E00020BDE8F88360B310B587
:1012DC00044690F8413013B3242384F8413022683B
:1012EC00D36823F40053D3602046FFF763FF2268D2
:1012FC00136923F4904313612268536923F02A0382
:10130C0053612268D36843F40053D36000206064B7
:10131C00202384F8413084F84230606310BD80F89B
:10132C004030FFF723FAD7E7012070472DE9F04151
:10133C0082B01E4690F84130DBB2202B4BD10446D4
:10134C000D46904600294AD00AB9012044E00023FA
:10135C004364212380F84130FFF788FA0746A4F84C
:10136C002480A4F82680A368B3F5805F02D04FF0E8
:10137C0000080FE02369FBB14FF000080AE038F8D1
:10138C00023B2268C3F308035360E28C92B2013A29
:10139C0092B2E284E38C9BB28BB100963B46002266
:1013AC0080212046FFF750FFD8B9002DE7D015F863
:1013BC00012B23685A60E8E7A8460025EAE7009667
:1013CC003B46002240212046FFF73EFF58B9202320
:1013DC0084F8413000E0022002B0BDE8F081012029
:1013EC00FAE70320F8E70320F6E70000FFF7E0FE3A
:1013FC000B480C490C4A002302E0D458C450043367
:10140C00C4188C42F9D3094A094C002301E013603B
:10141C000432A242FBD300F00FF8FFF765F97047D6
:10142C00000000200C000020841700081000002091
:10143C0058010020FEE7000070B500260C4D0D4C45
:10144C00641BA410A64209D100F022F800260A4D14
:10145C000A4C641BA410A64205D170BD55F8043B80
:10146C0098470136EEE755F8043B98470136F2E70A
:10147C007C1700087C1700087C17000880170008F0
:10148C0003460244934200D1704703F8011BF9E76D
:10149C00F8B500BFF8BC08BC9E467047F8B500BF55
:0814AC00F8BC08BC9E46704725
:1014B4002049676E6F7265642000000020466169F0
:1014C4006C7572657320000020546573747320007A
:1014D4002D2D2D2D2D2D2D2D2D2D2D2D2D2D2D2D38
:1014E4002D2D2D2D2D2D2D004641494C00000000A1
:1014F4004F4B0000556E69747920746573742072C3
:10150400756E2000206F6620000000002D6800002A
:101514002D2D68656C70000052756E732061207308
:101524006572696573206F6620756E6974207465D1
:101534007374732E000000005768656E206E6F2070
:10154400666C616720697320737065636966696599
:10155400642C20616C6C20746573747320617265F3
:101564002072756E2E0000004F7074696F6E616C8E
:1015740020666C6167733A0020202D76202020209D
:10158400202020202020566572626F7365206F75BD
:10159400747075743A2073686F7720616C6C207472
:1015A4006573747320657865637574656420657606
:1015B400656E2069662074686579207061737300B4
:1015C40020202D732020202020202020202053693B
:1015D4006C656E74206D6F64653A206D696E696D1B
:1015E400616C206F75747075742073686F77696EA1
:1015F40067206F6E6C792074657374206661696C02
:10160400757265730000000020202D67204E414D47
:101614004520202020204F6E6C792072756E207436
:101624006573747320696E2067726F7570732074AC
:1016340068617420636F6E7461696E2074686520DC
:10164400737472696E67204E414D450020202D6EE3
:10165400204E414D4520202020204F6E6C79207271
:10166400756E2074657374732077686F7365206E6C
:10167400616D6520636F6E7461696E732074686553
:1016840020737472696E67204E414D45000000005E
:1016940020202D72204E554D424552202020526567
:1016A4007065617465646C792072756E20616C6C10
:1016B400207465737473204E554D424552207469ED
:1016C4006D65730020202D682C202D2D68656C70AD
:1016D4002020446973706C61792074686973206890
:1016E400656C70206D657373616765004D6F72651D
:1016F40020696E666F726D6174696F6E2061626FCE
:10170400757420556E6974793A2068747470733AEC
:101714002F2F7777772E7468726F77746865737775
:10172400697463682E6F72672F756E69747900002F
:101734002D7600002D7300002D6700002D6E000033
:101744002D720000010200000203040506070809C7
:101754000A0B0C0D0E0F1010000000000102030410
:10176400000000000000000001020304060708094D
:0817740098E9FF7F010000006D
:04177C0089010008D7
:0417800061010008FB
:0C17840001000000100000000024F40030
:04000005080013F9E3
:00000001FF
