:020000040800F2
:1000000000500020412E00089115000893150008AB
:1000100095150008971500089915000800000000C4
:100020000000000000000000000000009B15000818
:100030009D150008000000009F150008A11500088C
:10004000892E0008892E0008892E0008892E0008B4
:10005000892E0008892E0008892E0008892E0008A4
:10006000892E0008892E0008892E0008892E000894
:10007000892E0008892E0008892E0008892E000884
:10008000892E0008892E0008892E0008892E000874
:10009000892E0008892E0008892E0008892E000864
:1000A000892E0008892E0008892E0008892E000854
:1000B000892E0008892E0008892E0008892E000844
:1000C000892E0008892E0008892E0008892E000834
:1000D000892E0008892E0008892E0008892E000824
:1000E000892E0008892E0008892E000800000000D3
:1000F0000000000000000000000000000000000000
:0C01000000000000000000005FF808F1A3
:10010C00EC46A0E8F05F4FF000007047B0E8F05FFD
:10011C00E546080008BF0120704700BF10F8012B0E
:10012C0011F8013B012A28BF9A42F7D0D01A704728
:10013C0000F1340191E838009C46A6464CF8045D69
:10014C0090E8FF0FE54600BD90EC210B704700BF17
:10015C0080EC210B704700BF90EC200B704700BF68
:10016C0080EC200B704700BFD0EC200B704700BF19
:10017C00C0EC200B704700BFF0EC0201F0EC021158
:10018C00F0EC0221F0EC0231F0EC0241F0EC025107
:10019C00F0EC0261F0EC0271F0EC0281F0EC0291F7
:1001AC00F0EC02A1F0EC02B1F0EC02C1F0EC02D1E7
:1001BC00F0EC02E1F0EC02F1704700BFE0EC020160
:1001CC00E0EC0211E0EC0221E0EC0231E0EC024147
:1001DC00E0EC0251E0EC0261E0EC0271E0EC028137
:1001EC00E0EC0291E0EC02A1E0EC02B1E0EC02C127
:1001FC00E0EC02D1E0EC02E1E0EC02F1704700BF70
:10020C00B0FC0181B0FC0191B0FC01A1B0FC01B1CA
:10021C00704700BFA0FC0181A0FC0191A0FC01A1D2
:10022C00A0FC01B1704700BFEC4600B52DE90050B1
:10023C002DE9FF1F4FF000032DE90C0001A902F07E
:10024C00CFFFDDF840E012B0704700BFEC4600B5C0
:10025C002DE900502DE9FF1F4FF000032DE90C0094
:10026C0001A902F0FDFFDDF840E012B0704700BFBD
:10027C00EC4600B52DE900502DE9FF1F4FF00003AF
:10028C002DE90C0001A903F00DF8DDF840E012B0E7
:10029C00704700BFEC4600B52DE900502DE9FF1F5B
:1002AC004FF000032DE90C0001AB02F0CDFFDDF89F
:1002BC0040E012B0704700BFEC4600B52DE900508D
:1002CC002DE9FF1F4FF000032DE90C0001AA03F0EC
:1002DC0043F8DDF840E012B0704700BF0348044B10
:1002EC00834202D0034B03B11847704764000020CF
:1002FC0064000020000000000548064B1B1AD90FB3
:10030C0001EBA301491002D0034B03B1184770470E
:10031C0064000020640000200000000010B5064CB2
:10032C00237843B9FFF7DAFF044B13B10448AFF35A
:10033C0000800123237010BD680000200000000025
:10034C005C3D000808B5054B1BB105490548AFF3EA
:10035C000080BDE80840FFF7CFBF00BF00000000E1
:10036C006C0000205C3D0008030243EA102080B2C0
:10037C0070470346084603F03F03C3F140039BB2AA
:10038C008B4200D81846704770B50E4614461D4671
:10039C00FFF7EAFF2B4623F8020B2246314618469C
:1003AC0002F092FDA11CC9B2284601F0D7F8044610
:1003BC00142001F0E3F8204670BD2DE9F04106460B
:1003CC000D461F46B0F8008011464046FFF7D1FF9E
:1003DC000446069B024629684046FFF7D5FF3B883A
:1003EC001B1B3B803388234433802B6823442B60B6
:1003FC00BDE8F08100B583B0FFF7B6FFADF806009D
:10040C0002210DF1060001F0A9F803B05DF804FB20
:10041C0010B582B00C46FFF7A7FFADF804008DF8BD
:10042C000640032101A801F099F80446142001F0BC
:10043C00A5F8204602B010BD30B597B0ADF8560007
:10044C001491ADF84E2003AB00930DF14E0314A99B
:10045C000DF15600FFF7B1FF0546BDF84E30EBB17C
:10046C00002415E003AB40221499BDF85600FFF7A9
:10047C008BFFBDF856304033ADF85630149B4033EB
:10048C001493BDF84E30403BADF84E300134A4B25D
:10049C00BDF84E20B4EB921FE4D312B9284617B026
:1004AC0030BD03AB1499BDF85600FFF76DFFF5E7AF
:1004BC0008B5012101F042F808BD38B50D46FFF72B
:1004CC0099FF04460121284601F038F82043C0B2B8
:1004DC0038BD08B5C9B201F031F808BD38B50321F3
:1004EC000D4801F03BF80446142001F047F80CB11C
:1004FC00204638BD0221084801F030F80446074D6B
:10050C000121284601F01AF80443E4B22B78552B4C
:10051C00EED044F00104EBE7000000208400002042
:10052C0070B50646012402E004EB84046400B6FBBB
:10053C00F4F3092BF8D8B6FBF4F20A4DA5FB021321
:10054C00DB0803EB8303A2EB4303DBB203F13000C4
:10055C00C0B200F0CFFB2346A5FB0445EC08092BE9
:10056C00E9D870BDCDCCCCCC10B5041E03DB204635
:10057C00FFF7D6FF10BD2D2000F0BCFB6442F6E760
:10058C0038B50546082912D80C4602E0373000F081
:10059C00B1FB74B1013CE4B2A00025FA00F000F00C
:1005AC000F000928F2DC303000F0A4FBF1E708243E
:1005BC00EFE738BD10B504460078A0F12003DBB29C
:1005CC005E2B0ED90D280FD00A2814D05C2000F019
:1005DC0091FB782000F08EFB02212078FFF7D0FFF2
:1005EC0010BD00F087FBFBE75C2000F083FB722062
:1005FC0000F080FBF4E75C2000F07CFB6E2000F048
:10060C0079FBEDE710B5044620B906E02046FFF76C
:10061C00D1FF01342378002BF8D110BD10B50C4656
:10062C00FFF7F0FF3A2000F065FB2046FFF79CFF38
:10063C003A2000F05FFB044B5868FFF7E3FF3A20C9
:10064C0000F058FB10BD00BF8800002008B5014623
:10065C00054B1868FFF7E2FF0448FFF7D3FF3A2079
:10066C0000F048FB08BD00BF88000020FC3D0008DE
:10067C00E8B138B504460E48FFF7C4FF0D4B9B6834
:10068C008BB10D48FFF7BEFF0A4DA868FFF7BAFF04
:10069C00EB682BB10948FFF7B5FFE868FFF7B2FF2D
:1006AC000348FFF7AFFF2046FFF7ACFF38BD70479C
:1006BC00F83D000888000020A03D0008943D00088B
:1006CC0038B505460C4611F0100F2FD0912902D0E9
:1006DC00FFF74AFF38BD272000F00CFBA5F12003E3
:1006EC005E2B11D90D2D13D00A2D18D05C2000F0E3
:1006FC0001FB782000F0FEFA02212846FFF740FFAC
:10070C00272000F0F7FAE5E7E8B200F0F3FAF7E794
:10071C005C2000F0EFFA722000F0ECFAF0E75C20BD
:10072C0000F0E8FA6E2000F0E5FAE9E711F0200F8E
:10073C0002D0FFF7F5FECDE7302000F0DBFA782091
:10074C0000F0D8FA04F00F0149002846FFF718FF13
:10075C00C0E70000F8B50C469DF818701449096AFA
:10076C0039B905461646124A526A12B9A04204D14A
:10077C00F8BD01210F48FFF7C9FC1846FFF766FFCB
:10078C000D48FFF73FFF39462846FFF799FF0B4806
:10079C00FFF738FF39462046FFF792FF3046FFF748
:1007AC0067FF0348012101622830FFF7AFFC00BF4F
:1007BC0088000020B0000020EC3D0008E43D00085B
:1007CC00064B186000225A601A615A619A61DA610C
:1007DC001A625A629A60DA60704700BF8800002083
:1007EC0010B50D2000F086FA0A2000F083FA1A48A2
:1007FC00FFF708FF0D2000F07DFA0A2000F07AFACE
:10080C00164C6069FFF7B0FE1548FFF7FBFEA069B8
:10081C00FFF7AAFE1348FFF7F5FEE069FFF7A4FE09
:10082C001148FFF7EFFE0D2000F064FA0A2000F0EB
:10083C0061FAA3695BB90D48FFF7E4FE0D2000F0E7
:10084C0059FA0A2000F056FA044B986910BD084872
:10085C00FFF7D8FEF2E700BFCC3D0008880000206F
:10086C00C43D0008B83D0008AC3D00080C3E000833
:10087C00FC3D000810B504460948FFF7C3FE601C98
:10088C00FFF74EFE0748FFF7BDFE074B9868FFF7D2
:10089C0047FE0D2000F02EFA0A2000F02BFA10BDB6
:1008AC00103E0008203E00087C01002048B108B52D
:1008BC000B460146184602F015FB003818BF012004
:1008CC0008BD01207047000008B50146024BD868EE
:1008DC00FFF7ECFF08BD00BF7C01002008B5014606
:1008EC00024B1869FFF7E2FF08BD00BF7C01002036
:1008FC00014B00221A6070475001002009E0013BB7
:10090C00064A1360064A52F8331002EBC3025368CE
:10091C000B60024B1B68002BF1DC70475001002070
:10092C0054010020F8B57C4B00221A605A601A6101
:10093C00DA6001229A60904200F0E88006460F4689
:10094C00154676E07548FFF75DFE0D2000F0D2F9F4
:10095C000A2000F0CFF90D2000F0CCF90A2000F0AD
:10096C00C9F96F48FFF74EFE0D2000F0C3F90A20BD
:10097C0000F0C0F90D2000F0BDF90A2000F0BAF922
:10098C006848FFF73FFE0D2000F0B4F90A2000F094
:10099C00B1F96548FFF736FE0D2000F0ABF90A20DF
:1009AC0000F0A8F96148FFF72DFE0D2000F0A2F928
:1009BC000A2000F09FF95E48FFF724FE0D2000F09E
:1009CC0099F90A2000F096F95A48FFF71BFE0D2002
:1009DC0000F090F90A2000F08DF95748FFF712FE4D
:1009EC000D2000F087F90A2000F084F95348FFF736
:1009FC0009FE0D2000F07EF90A2000F07BF90D2095
:100A0C0000F078F90A2000F075F94D48FFF7FAFD6F
:100A1C000D2000F06FF90A2000F06CF90120F8BDF0
:100A2C0048492046FFF77AFB00BB3B4B01225A603A
:100A3C001544B54268DA57F8254043492046FFF77C
:100A4C006DFB00283FF47EAF40492046FFF766FB64
:100A5C0000283FF477AF3E492046FFF75FFB0028A4
:100A6C00DED12D4B01221A601544E2E739492046AC
:100A7C00FFF754FB40B96B1C9E4249DD57F823200D
:100A8C00254B1A610235D4E733492046FFF746FB64
:100A9C0040B96B1C9E423DDD57F823201E4BDA609B
:100AAC000235C6E72D492046FFF738FB40BB1A4BF1
:100ABC0002229A606B1C9E4224DD07EB830457F8DC
:100ACC0023201278303AD2B2092A01D91D46B0E758
:100ADC000022114B9A600BE00F498B6803EB8303E8
:100AEC005B008B602068805C303803448B60013283
:100AFC0023689B5C303BDBB2092BEDD9023598E7C0
:100B0C00013596E71D4694E7002088E7002086E72C
:100B1C00012084E7012082E77C010020383E000898
:100B2C00583E0008883E0008983E0008E03E000849
:100B3C00283F00086C3F0008B03F0008E43F000865
:100B4C000C40000854400008283E0008303E0008C5
:100B5C0050400008584000085C4000086040000805
:100B6C0070B50D461646FFF7DDFEE0B9002405E032
:100B7C000A2000F0BFF8FFF733FE01340A4B9B68E4
:100B8C00A3420ED92868FFF71BFE2046FFF772FE22
:100B9C00B047054B1B68002BEAD10D2000F0AAF8DA
:100BAC00E6E7024B986970BD7C01002088000020AC
:100BBC0008B5184B5B6A93B9164B1B6AF3B9164B05
:100BCC001B68B3B11548FFF71DFD1548FFF71AFD5B
:100BDC000D2000F08FF80A2000F08CF809E00D4A87
:100BEC00D3690133D3610D2000F084F80A2000F0A2
:100BFC0081F8084B00221A625A6208BD054A9369B3
:100C0C00013393610D2000F075F80A2000F072F8A2
:100C1C00EFE700BF880000207C0100206440000842
:100C2C00043E000810B584B00190029103921C465A
:100C3C000798FFF749FE00282AD00698FFF74EFECA
:100C4C0030B31B4B089A1A605C60099A1A61194BF5
:100C5C001B68FBB9174B5B681BB3154C63690133FD
:100C6C006361FFF745FE04F12800FFF749FA18B954
:100C7C00019B9847029B98470F48FFF741FA08B928
:100C8C00039B98470C48FFF73BFA70B1FFF790FFB6
:100C9C0004B010BD2046FFF7B5FC054B00225A608E
:100CAC00DBE72E2000F026F8D7E7FFF727FEEDE76D
:100CBC00880000207C010020B000002082B00A4B8C
:100CCC009A6942F008029A619A6902F0080200924D
:100CDC00009A9A6942F004029A619B6903F004033A
:100CEC000193019B02B070470010024008B500F060
:100CFC008DF808BD00B583B08DF807006423012280
:100D0C000DF10701024802F035F803B05DF804FB61
:100D1C00900100204FF0FF30704701207047FEE734
:100D2C0072B6FEE708B50A480A4B03600A4B4360EB
:100D3C0000238360C3604FF480420261436183618E
:100D4C00C361036200F018FF00B908BDFFF7E8FFAC
:100D5C00D801002000580040A086010008B50A48C0
:100D6C000A4B03604FF4E133436000238360C3609C
:100D7C0003610C2242618361C36101F0CBFF00B9B6
:100D8C0008BDFFF7CDFF00BF9001002000380140E7
:100D9C0000B591B02822002106A802F0B9F8002372
:100DAC000193029303930493059302230693012367
:100DBC000A9310230B9306A801F098FA68B90F2335
:100DCC0001930021029103910491059101A801F076
:100DDC00BFFC20B911B05DF804FBFFF7A1FFFFF7D2
:100DEC009FFF000008B501F033FAFFF7D1FFFFF7C2
:100DFC0065FFFFF797FFFFF7B1FF034A0021084695
:100E0C00FFF7AEFE08BD00BFF90C000808B500F0F6
:100E1C0041FA00F061FA00F081FA00F0A1FA00F05A
:100E2C00C1FA00F0E1FA00F001FB00F021FB00F048
:100E3C0041FB00F061FB08BD7047704700B583B003
:100E4C00FFF74CFB0146142300932123002210468C
:100E5C00FFF780FC03B05DF804FBF0B583B00746E8
:100E6C000E461546002409E0412300930E23002270
:100E7C0031573857FFF76EFC0134A4B2AC42F3D3B0
:100E8C0003B0F0BD30B585B000258DF80F5054215E
:100E9C004AF65520FFF7BCFA04460DF10F014AF64D
:100EAC005520FFF70AFB44EA0001142300932B237F
:100EBC002A46C9B22846FFF74DFC412300932C2348
:100ECC002A469DF90F105420FFF744FC05B030BDA5
:100EDC0030B585B000258DF80F5054214520FFF713
:100EEC0097FA04464520FFF785FA0443E4B20DF166
:100EFC000F00FFF7DDFA44EA0001142400943723B5
:100F0C002A46C9B22846FFF725FC009438232A4606
:100F1C009DF80F105420FFF71DFC05B030BD0000EC
:100F2C0010B584B0234B039354215520FFF770FA6E
:100F3C0004469DF80D105620FFF76AFA0443E4B2FC
:100F4C009DF80E105720FFF763FA0443E4B29DF8A6
:100F5C000F105820FFF75CFA0443E4B25520FFF75A
:100F6C0049FA0443E4B202A8FFF7A2FA0443E4B23C
:100F7C000DF10900FFF79CFA0443E4B20DF10A00ED
:100F8C00FFF796FA0443E4B20DF10B00FFF790FA69
:100F9C0044EA00011423009353230022C9B21046E3
:100FAC00FFF7D8FB042202A903A8FFF756FF04B0F1
:100FBC0010BD00BF54AA010230B585B0164B039387
:100FCC00002425460CE004F110036B4413F8041CB8
:100FDC0004F14400FFF71CFA0543EDB20134E4B20E
:100FEC00032CF0D94420FFF705FA0543EDB2042198
:100FFC0002A8FFF76EFA0543142300936523002221
:10100C00E9B21046FFF7A6FB042202A903A8FFF7DA
:10101C0024FF05B030BD00BF5501AA0230B595B014
:10102C001E4B1393002425460CE004F150036B4433
:10103C0013F8041C04F16800FFF7EAF90543EDB25C
:10104C000134E4B2032CF0D94721A420FFF7E0F9D6
:10105C0045EA0004E4B26820FFF7CCF90443E4B29B
:10106C00442102A8FFF735FA44EA00011423009347
:10107C0078230022C9B21046FFF76CFB042202A9A8
:10108C0013A8FFF7EAFE412300937A2300229DF96F
:10109C0044104720FFF75EFB15B030BD5501AA0286
:1010AC0030B5A5B0254B239300252C460CE005F15B
:1010BC0090036B4413F8041C05F17500FFF7A8F9B5
:1010CC000443E4B20135EDB2032DF0D92621B12051
:1010DC00FFF79EF90443E4B24521E420FFF798F9A9
:1010EC000443E4B27520FFF785F90443E4B2802190
:1010FC0003A8FFF7EEF944EA0001142300938D23B3
:10110C000022C9B21046FFF725FB042203A923A82D
:10111C00FFF7A3FE412400948F2300229DF9481071
:10112C002620FFF717FB0094902300229DF97B10DB
:10113C004520FFF70FFB25B030BD00BF340255AA88
:10114C0030B587B0184B04AD93E8030085E8030075
:10115C00082229464AF64420FFF76EF9044602A9F4
:10116C004AF64420FFF7A9F90443E4B24AF64420B6
:10117C00FFF740F90443E4B208210DEB0100FFF73F
:10118C00A8F944EA000114230093A3230022C9B256
:10119C001046FFF7DFFA08220DEB02012846FFF795
:1011AC005CFE07B030BD00BF743D000810B5A4B0A4
:1011BC00194A13AB9068D16803C3127C1A703B2296
:1011CC0000210DF1550001F0A3FE3C22AA2115A827
:1011DC0001F09EFE442213A94AF65520FFF72CF984
:1011EC0004464AF65520FFF705F90443E4B24421BE
:1011FC0002A8FFF76EF944EA000114230093B6230A
:10120C000022C9B21046FFF7A5FA442202A913A87E
:10121C00FFF723FE24B010BD743D000810B5C2B01A
:10122C001B4A22AB5069916903C3127F1A70772253
:10123C0000210DF1910001F06BFE7822AA2124A867
:10124C0001F066FE55238DF8EC30802222A940F285
:10125C005510FFF7F1F8044640F25510FFF7CAF8A5
:10126C000443E4B2802102A8FFF733F944EA0001F9
:10127C0014230093CA230022C9B21046FFF76AFA5E
:10128C00802202A922A8FFF7E8FD42B010BD00BFE2
:10129C00743D000800B585B01D230393074B0293E2
:1012AC00074B0193074B0093074B084A0849094821
:1012BC00FFF7B8FC05B05DF804FB00BF90400008D8
:1012CC00C0400008D440000868400008470E0008E1
:1012DC00490E0008450E000800B585B02423039381
:1012EC00074B0293074B0193074B0093074B084A9C
:1012FC0008490948FFF796FC05B05DF804FB00BFF0
:10130C00904000081C410008D4400008E44000084C
:10131C00470E0008910E0008450E000800B585B078
:10132C002F230393074B0293074B0193074B009317
:10133C00074B084A08490948FFF774FC05B05DF8EB
:10134C0004FB00BF9040000878410008D44000081E
:10135C0040410008470E0008DD0E0008450E00084D
:10136C0000B585B03B230393074B0293074B0193C6
:10137C00074B0093074B084A08490948FFF752FCF2
:10138C0005B05DF804FB00BF90400008DC4100088C
:10139C00D44000089C410008470E00082D0F00089F
:1013AC00450E000800B585B058230393074B0293F4
:1013BC00074B0193074B0093074B084A0849094810
:1013CC00FFF730FC05B05DF804FB00BF904000084F
:1013DC003C420008D440000808420008470E0008B0
:1013EC00C50F0008450E000800B585B069230393AE
:1013FC00074B0293074B0193074B0093074B084A8B
:10140C0008490948FFF70EFC05B05DF804FB00BF66
:10141C009040000894420008D44000085C42000848
:10142C00470E000829100008450E000800B585B0CD
:10143C007D230393074B0293074B0193074B0093B8
:10144C00074B084A08490948FFF7ECFB05B05DF863
:10145C0004FB00BF90400008EC420008D440000898
:10146C00B4420008470E0008AD100008450E0008F5
:10147C0000B585B093230393074B0293074B01935D
:10148C00074B0093074B084A08490948FFF7CAFB6A
:10149C0005B05DF804FB00BF904000083C43000819
:1014AC00D440000810430008470E00084D110008F6
:1014BC00450E000800B585B0A7230393074B029394
:1014CC00074B0193074B0093074B084A08490948FF
:1014DC00FFF7A8FB05B05DF804FB00BF90400008C7
:1014EC0080430008D440000854430008470E00080D
:1014FC00B9110008450E000800B585B0BA23039356
:10150C00074B0293074B0193074B0093074B084A79
:10151C0008490948FFF786FB05B05DF804FB00BFDE
:10152C0090400008C4430008D440000898430008C9
:10153C00470E000829120008450E000800B583B0BC
:10154C0002460B4664210091A0210348006800F07C
:10155C00ADFC03B05DF804FB0400002000B583B0C3
:10156C0002460B4664210091A0210348006800F05C
:10157C00E1FB03B05DF804FB0400002008B500F0AB
:10158C008BFE08BDFEE7FEE7FEE7FEE7FEE77047D1
:10159C007047704708B500F06DFE08BD82B00E4B69
:1015AC009A6942F001029A619A6902F00102009272
:1015BC00009ADA6942F08052DA61DB6903F08053F9
:1015CC000193019B054A536823F0E06343F00073D9
:1015DC00536002B0704700BF001002400000014091
:1015EC0010B586B00023029303930493059302680D
:1015FC00114B9A4201D006B010BD104CA36943F0B8
:10160C000803A361A36903F008030093009B4FF444
:10161C0040630293122303930323059302A9084802
:10162C0001F072F9E36943F48003E361E36903F4C5
:10163C0080030193019BDEE700580040001002403C
:10164C00000C014010B586B0002302930393049361
:10165C0005930268174B9A4201D006B010BD03F5F2
:10166C0058439A6942F480429A619A6902F4804222
:10167C000092009A9A6942F004029A619B6903F005
:10168C0004030193019B4FF4007302930223039311
:10169C0003230593084C02A9204601F035F94FF4B9
:1016AC008063029300230393049302A9204601F064
:1016BC002BF9D2E7003801400008014003685A6951
:1016CC0012F4806F01D1002070476FF480625A6170
:1016DC0000230363202280F83D2080F83E30026C0A
:1016EC0042F00402026480F83C30012070472DE97E
:1016FC00F04106460C46174698463BE000F0C6FD06
:10170C00069BC01A404502D8B8F1000F32D1012D0A
:10171C0018D033689B6924EA03039BB2B3FA83F3B2
:10172C005B099F4226D100233363202286F83D209B
:10173C0086F83E30326C42F02002326486F83C303F
:10174C00012027E033685B6924EA03039BB2B3FAF8
:10175C0083F35B09E5E733685B6924EA030C1FFA42
:10176C008CFCBCFA8CFC4FEA5C1C674511D1B8F1BF
:10177C00FF3FC3D1C4F30745012DECD033689B69FF
:10178C0024EA030C1FFA8CFCBCFA8CFC4FEA5C1CA0
:10179C00EBE70020BDE8F0812DE9F84305460E4645
:1017AC009046994653E01A6842F400721A602B680E
:1017BC006FF480625A6100232B63202285F83D2050
:1017CC0085F83E302A6C42F004022A6485F83C30DD
:1017DC0001204AE000F05AFDA0EB0900404502D878
:1017EC00B8F1000F33D1012F17D02B689B6926EA73
:1017FC0003039BB2003B18BF012343B300232B63AD
:10180C00202285F83D2085F83E302A6C42F02002DB
:10181C002A6485F83C30012027E02B685B6926EAB6
:10182C0003039BB2003B18BF0123E6E72B689C69BE
:10183C0026EA0404A4B2003C18BF0124A4B12B680E
:10184C005A6912F4806FAED1B8F1FF3FC2D1C6F322
:10185C000747012FEAD12B685C6926EA0404A4B27D
:10186C00003C18BF0124E9E70020BDE8F883000024
:10187C00F0B583B004460D4616461F46C36A082BC6
:10188C000DD0012B0BD013F5803F08D0036B122B1E
:10189C000AD10268136843F48073136004E0226871
:1018AC00136843F4807313600097334600224FF0A3
:1018BC0001112046FFF71BFF80B92369B3F5804F58
:1018CC0016D1236805F0FE051D613B4632461349CF
:1018DC002046FFF761FFF8B903B0F0BD23681B6821
:1018EC0013F4807F02D04FF4007323640320F3E7DA
:1018FC00EB11226803F0060343F0F00313613B463F
:10190C00324607492046FFF747FF18B92368EDB266
:10191C001D61DAE70120DFE70120DDE702000100AD
:10192C00080001002DE9F04184B004460D4616462E
:10193C001F46C26A01680B6843F480630B60082A77
:10194C000DD0012A0BD012F5803F08D0036B112B60
:10195C000AD10268136843F48073136004E02268B0
:10196C00136843F4807313600097334600224FF0E2
:10197C0001112046FFF7BBFE98B92369B3F5804FE0
:10198C0019D1236845F00105EDB21D613B46324685
:10199C002A492046FFF700FF00284CD104B0BDE8CF
:1019AC00F08123681B6813F4807F02D04FF400731E
:1019BC0023640320F2E74FEAE51808F006082368D1
:1019CC0048F0F0021A613B4632461D492046FFF7AB
:1019DC00E3FE08B10120E1E72368EDB21D613B464F
:1019EC00324616492046FFF7D7FE08B10120D5E74D
:1019FC000022039223685969039199690391039911
:101A0C00196841F480711960009733464FF0011149
:101A1C002046FFF76CFE20B9226848F0F1031361F1
:101A2C00B4E723681B6813F4807F02D04FF4007373
:101A3C0023640320B2E70120B0E700BF02000100DD
:101A4C000800010070B504460D46164623685B6914
:101A5C0013F0800F21D12046FFF730FEF8B9B5F115
:101A6C00FF3FF3D000F012FC801BA84201D8002DE0
:101A7C00ECD123685B6913F0800FE7D1002323635B
:101A8C00202284F83D2084F83E30226C42F0200263
:101A9C00226484F83C30012000E0002070BD01205D
:101AAC00FCE770B504460D46164623685B6913F0D7
:101ABC00040F21D12046FFF701FEF8B9B5F1FF3F25
:101ACC00F3D000F0E3FB801BA84201D8002DECD131
:101ADC0023685B6913F0040FE7D1002323632022F2
:101AEC0084F83D2084F83E30226C42F020022264BF
:101AFC0084F83C30012000E0002070BD0120FCE7A0
:101B0C0070B504460D46164614E06FF010025A618B
:101B1C0000232363202284F83D2084F83E30226C7D
:101B2C00226484F83C30012025E023685B6913F0C3
:101B3C00400F10D02368586910F0400F1AD1586923
:101B4C0010F0100FE1D100F0A1FB801BA842ECD8E3
:101B5C00002DEFD1E9E700232363202284F83D20F8
:101B6C0084F83E30226C42F02002226484F83C302F
:101B7C00012000E0002070BD002800F0CC8070B582
:101B8C00044690F83D30002B77D0242384F83D3068
:101B9C002268136823F0010313602268136843F46E
:101BAC00004313602268136823F40043136000F0B1
:101BBC008BFE62685A4B9A4264D85A4B98428CBF3F
:101BCC0000230123002B40F0A8805749A1FB0031D2
:101BDC008B0C25686A6822F03F0242EA91426A60E7
:101BEC0021680A6A22F03F0266684D4DAE424FD81A
:101BFC00013313430B622168CA6922F44F4222F06D
:101C0C00FF026568464B9D424CD8431E6D00B3FBEA
:101C1C00F5F3013340F6FC70034278D0C3F30B03A9
:101C2C001A43CA6121680B6823F0C003E269206A79
:101C3C00024313430B6021688B6823F4034323F0A6
:101C4C00FF032269E068024313438B602168CB6871
:101C5C0023F0FF036269A06902431343CB6022683F
:101C6C00136843F00103136000202064202384F8E0
:101C7C003D30206384F83E0070BD80F83C30FFF7A7
:101C8C00AFFC82E7294B98428CBF0023012399E7D4
:101C9C004FF4967505FB03F3254DA5FB03539B09E8
:101CAC000133A6E7A668BEB9431E05EB450CB3FB92
:101CBC00FCF30133C3F30B03B3FA83F35B0943BBAC
:101CCC00C6B9431E05EB4505B3FBF5F30133C3F36E
:101CDC000B0343F40043A3E7431E05EB850C0CEB0D
:101CEC008C0CB3FBFCF30133C3F30B03B3FA83F398
:101CFC005B09E4E7431E05EB850505EB8505B3FBA6
:101D0C00F5F30133C3F30B0343F4404388E7042397
:101D1C0086E7012384E7012070470120ACE700BF70
:101D2C00A08601007F841E0083DE1B43FF083D005C
:101D3C00D34D62102DE9F04385B004460F46914611
:101D4C0098460C9E00F0A2FA054694F83D00C0B2ED
:101D5C00202804D00227384605B0BDE8F083009552
:101D6C00192301224F492046FFF7C1FC002840F0FF
:101D7C00928094F83C30012B00F08F80012384F882
:101D8C003C3023681A6812F0010F03D11A6842F034
:101D9C0001021A602268136823F400631360212384
:101DAC0084F83D30102384F83E3000232364C4F8BB
:101DBC002490A4F82A80638D23853B4BE3622B4649
:101DCC00324639462046FFF753FD0746002866D1B8
:101DDC000023039323685A6903929B690393039B23
:101DEC0011E0236C042B01D00127B4E7226813689F
:101DFC0043F400731360F7E72A4631462046FFF799
:101E0C0050FE00282ED1238D002B36D02A46314689
:101E1C002046FFF717FE0028E3D1626A2368127888
:101E2C001A61606A431C6362618D89B2013989B29F
:101E3C006185238D013B9BB223852268516911F08A
:101E4C00040FD9D0002BD7D043781361636A0133C8
:101E5C006362638D9BB2013B9BB26385238D013B17
:101E6C002385C9E7236C042B01D0012773E7226873
:101E7C00136843F400731360F7E72268136843F4A4
:101E8C0000731360202384F83D30002384F83E3027
:101E9C0084F83C305FE702275DE702275BE7012708
:101EAC0059E700BF020010000000FFFF2DE9F043CE
:101EBC0089B004460F4691469846109E002307931E
:101ECC0000F0E4F9054694F83D00C0B2202804D097
:101EDC000227384609B0BDE8F0830095192301228A
:101EEC0080492046FFF703FC002840F07A8194F8E3
:101EFC003C30012B00F07781012384F83C302368BF
:101F0C001A6812F0010F03D11A6842F001021A602C
:101F1C002268136823F400631360222384F83D3095
:101F2C00102384F83E3000232364C4F82490A4F8D2
:101F3C002A80638D23856C4BE3622B4632463946EF
:101F4C002046FFF7EFFC0746002840F04E81238D1A
:101F5C005BB9039323685A6903929A690392039AB3
:101F6C001A6842F400721A60F3E0012B0FD0022BB6
:101F7C0021D02268136843F4806313600023069316
:101F8C0023685A6906929B690693069BE1E02268D6
:101F9C00136823F48063136072B6002304932368E0
:101FAC005A6904929A690492049A1A6842F400726B
:101FBC001A6062B6CDE02268136843F400631360C4
:101FCC0072B60023059323685A6905929A690592A3
:101FDC00059A1A6822F480621A6062B6B9E02A4641
:101FEC0031462046FFF78CFD002840F00081236825
:101FFC001A69636A1A70636A01336362238D013B49
:10200C002385638D9BB2013B9BB26385A1E0009558
:10201C003346002235492046FFF769FB002840F083
:10202C00EA802268136823F48063136072B6236815
:10203C001A69636A1A70636A01336362238D013B08
:10204C002385638D9BB2013B9BB26385284B1B6838
:10205C00DB08284AA2FB03231B0A03EB8303C3EB15
:10206C00C30307930799013907910799002928D0D1
:10207C0023685A6912F0040FF4D01A6842F4007203
:10208C001A6023681A69636A1A70636A013363629F
:10209C00238D013B2385638D9BB2013B9BB26385F2
:1020AC0062B623681A69636A1A70636A01336362E1
:1020BC00238D013B2385638D9BB2013B9BB26385D2
:1020CC0047E000232363202284F83D2084F83E302F
:1020DC00226C42F02002226462B684F83C30012764
:1020EC00F7E600BF020010000000FFFF0400010033
:1020FC001000002089B5F8142A4631462046FFF717
:10210C00FFFC002879D123681A69636A1A70636A24
:10211C0001336362228D013A92B22285638D9BB2A8
:10212C00013B9BB263852368596911F0040F10D0F1
:10213C00032A48D023681A69636A1A70636A0133E8
:10214C006362238D013B2385638D9BB2013B9BB264
:10215C006385218D00293BD00329CDD801293FF47B
:10216C003EAF02297FF453AF009533460022244939
:10217C002046FFF7BCFA00283BD172B622681368E0
:10218C0043F40073136023681A69636A1A70636AF4
:10219C0001336362238D013B2385638D9BB2013B2D
:1021AC009BB2638562B623681A69636A1A70636AA4
:1021BC0001336362238D013B2385638D9BB2013B0D
:1021CC009BB26385C5E71A6822F480621A60B1E796
:1021DC00202384F83D30002384F83E3084F83C30D2
:1021EC0077E6022775E6022773E6012771E60127D9
:1021FC006FE601276DE601276BE6012769E600BF54
:10220C000400010010B504460E4B1A784FF47A7393
:10221C00B3FBF2F30C4A1068B0FBF3F000F0D8FCFF
:10222C0068B90F2C01D901200AE0002221464FF099
:10223C00FF3000F0BDFC054B1C60002000E00120CD
:10224C0010BD00BF08000020100000200C00002072
:10225C0008B5074A136843F010031360032000F01D
:10226C0095FC0F20FFF7CEFFFFF798F9002008BD73
:10227C0000200240034A1168034B1B780B44136087
:10228C00704700BF2C02002008000020014B18688A
:10229C00704700BF2C02002038B50446FFF7F6FF4C
:1022AC000546B4F1FF3F02D0044B1B781C44FFF7EA
:1022BC00EDFF401BA042FAD338BD00BF0800002040
:1022CC0082B0084B1B68084AA2FB03235B0A00FB85
:1022DC0003F3019300BF019B5A1E0192002BF9D10D
:1022EC0002B0704710000020D34D6210002800F09F
:1022FC00F18170B582B00446036813F0010F2CD045
:10230C00994B5B6803F00C03042B1DD0964B5B6858
:10231C0003F00C03082B12D06368B3F5803F41D057
:10232C00002B55D103F1804303F504331A6822F4D2
:10233C0080321A601A6822F480221A6037E08A4BC5
:10234C005B6813F4803FE7D0874B1B6813F4003FA6
:10235C0003D06368002B00F0BF81236813F0020FD9
:10236C0075D0814B5B6813F00C0F5FD07E4B5B68B4
:10237C0003F00C03082B54D02369002B00F08A8047
:10238C007A4B01221A60FFF781FF0546764B1B68DA
:10239C0013F0020F75D1FFF779FF401B0228F5D916
:1023AC0003209EE1704A136843F480331360636822
:1023BC0043B3FFF76BFF05466B4B1B6813F4003FF1
:1023CC00CBD1FFF763FF401B6428F5D9032088E1CC
:1023DC00B3F5A02F09D0644B1A6822F480321A602E
:1023EC001A6822F480221A60E1E703F18043A3F516
:1023FC003C331A6842F480221A601A6842F4803224
:10240C001A60D4E7FFF742FF0546574B1B6813F4DD
:10241C00003FA2D0FFF73AFF401B6428F5D90320F8
:10242C005FE1514B5B6813F4803FA5D14E4B1B68A9
:10243C0013F0020F03D02369012B40F04F814A4A5D
:10244C00136823F0F803616943EAC103136023683E
:10245C0013F0080F33D0A369002B5CD0434B01223F
:10246C00C3F88024FFF712FF05463F4B5B6A13F05D
:10247C00020F21D1FFF70AFF401B0228F5D90320D8
:10248C002FE1394A136823F0F803616943EAC10369
:10249C001360DCE7354B00221A60FFF7F7FE0546A8
:1024AC00314B1B6813F0020FD1D0FFF7EFFE401B2E
:1024BC000228F5D9032014E10120FFF701FF23685E
:1024CC0013F0040F00F09680274BDB6913F0805F4C
:1024DC0034D1254BDA6942F08052DA61DB6903F0C2
:1024EC0080530193019B0125214B1B6813F4807FC2
:1024FC0026D0E368012B3DD0002B53D103F1804350
:10250C0003F504331A6A22F001021A621A6A22F0E5
:10251C0004021A6233E0154B0022C3F88024FFF743
:10252C00B5FE0546104B5B6A13F0020FC7D0FFF7E0
:10253C00ADFE401B0228F5D90320D2E00025D3E7DD
:10254C000B4A136843F480731360FFF79FFE064633
:10255C00074B1B6813F4807FCBD1FFF797FE801BD2
:10256C006428F5D90320BCE0001002400000424270
:10257C00007000405F4A136A43F001031362E36882
:10258C0033B3FFF783FE06465A4B1B6A13F0020F58
:10259C002FD1FFF77BFE801B41F288339842F3D991
:1025AC0003209EE0052B09D0524B1A6A22F001023F
:1025BC001A621A6A22F004021A62E0E74D4B1A6A98
:1025CC0042F004021A621A6A42F001021A62D6E759
:1025DC00FFF75CFE0646474B1B6A13F0020F08D050
:1025EC00FFF754FE801B41F288339842F3D9032045
:1025FC0077E0E5B9E369002B72D03E4A526802F0ED
:10260C000C02082A56D0022B17D03B4B00221A661C
:10261C00FFF73CFE0446374B1B6813F0007F47D096
:10262C00FFF734FE001B0228F5D9032059E0314A8C
:10263C00D36923F08053D361DCE72F4B00221A6659
:10264C00FFF724FE05462B4B1B6813F0007F06D0CA
:10265C00FFF71CFE401B0228F5D9032041E0236A3A
:10266C00B3F5803F1AD023494B6823F47413226AC4
:10267C00606A024313434B601F4B01221A66FFF73B
:10268C0005FE04461B4B1B6813F0007F0ED1FFF7B1
:10269C00FDFD001B0228F5D9032022E0154A5368E2
:1026AC0023F40033A1680B435360DCE7002018E0EF
:1026BC00002016E0012B16D00E4B5B6803F4803122
:1026CC00226A914211D103F47013626A93420ED1C3
:1026DC00002006E001207047012002E0012000E00C
:1026EC00002002B070BD0120FBE70120F9E70120BA
:1026FC00F7E700BF00100240000042420F4B5B683E
:10270C0003F00C02082A01D00D487047C3F3834232
:10271C000C49885C13F4803F0BD0084B5B68C3F307
:10272C004043094AD35C064A02FB00F0B0FBF3F0CD
:10273C007047064B03FB00F0704700BF00100240CF
:10274C0000127A00E0430008DC43000800093D0059
:10275C00002800F0A08070B50D460446524B1B6853
:10276C0003F007038B420BD24F4A136823F0070385
:10277C000B431360136803F007038B4240F08D800A
:10278C00236813F0020F17D013F0040F04D0474A3C
:10279C00536843F4E0635360236813F0080F04D0CC
:1027AC00424A536843F460535360404A536823F0E1
:1027BC00F003A1680B435360236813F0010F31D071
:1027CC006368012B20D0022B25D0384A126812F0F6
:1027DC00020F64D035494A6822F0030213434B6060
:1027EC00FFF754FD0646314B5B6803F00C0362683F
:1027FC00B3EB820F16D0FFF749FD801B41F28833F3
:10280C009842F0D9032045E0284A126812F4003FA0
:10281C00E0D101203EE0254A126812F0007FD9D1A8
:10282C00012037E0204B1B6803F00703AB420AD9A9
:10283C001D4A136823F007032B431360136803F03E
:10284C000703AB422DD1236813F0040F06D0174AAF
:10285C00536823F4E063E1680B435360236813F07F
:10286C00080F07D0114A536823F46053216943EAD7
:10287C00C1035360FFF742FF0C4B5B68C3F30313B8
:10288C000B4AD35CD8400B4B18600B4B1868FFF706
:10289C00B9FC002070BD012070470120FAE701202F
:1028AC00F8E70120F6E700BF0020024000100240CC
:1028BC00F8430008100000200C000020014B1868A1
:1028CC00704700BF1000002008B5FFF7F7FF044B5E
:1028DC005B68C3F30223034AD35CD84008BD00BF36
:1028EC0000100240F043000808B5FFF7E7FF044B67
:1028FC005B68C3F3C223034AD35CD84008BD00BF56
:10290C0000100240F043000870B582B00024A446C9
:10291C00A1E07E4DAB4214D00CD8A5F58015AB428E
:10292C000FD005F57025AB420BD0A5F58015AB4249
:10293C0010D106E0764DAB4203D005F58035AB42A5
:10294C0008D18B68002B50D0012B49D04261082450
:10295C0000E0CC68BEF1FF0F49D806464FEA8C0266
:10296C0033680F25954023EA050304FA02F213435A
:10297C0033604B6813F0805F6BD0664B9A6942F002
:10298C0001029A619B6903F001030193019B4FEAD9
:10299C009C02951C604B53F825600CF00305AD00B0
:1029AC000F23AB4026EA03065C4B984226D003F576
:1029BC008063984200F08C8003F58063984200F0AD
:1029CC00898003F58063984216D0042317E0CC6805
:1029DC000434BFE7CC680834BCE7CC680C34B9E7E6
:1029EC0002610824B6E70024B4E70424B2E7061D0C
:1029FC00ACF108029200B3E7032300E00023AB40E4
:102A0C0033430232444D45F822304B6813F4801F97
:102A1C0062D0434A936843EA0E0393604B6813F405
:102A2C00001F5FD03E4AD36843EA0E03D3604B6865
:102A3C0013F4003F5CD03A4A536843EA0E035360E8
:102A4C004B6813F4803F59D0354A136843EA0E03A0
:102A5C0013600CF1010C0B6833FA0CF254D0012208
:102A6C0002FA0CF203EA020E32EA0303F1D14B68CC
:102A7C00122B3FF64EAF122B3FF66CAF01A555F85B
:102A8C0023F000BF4F2900085F290008E129000846
:102A9C00F329000861290008612900086129000850
:102AAC0061290008612900086129000861290008D2
:102ABC0061290008612900086129000861290008C2
:102ACC006129000861290008DB290008E7290008B2
:102ADC00012394E7022392E7114A936823EA0E0339
:102AEC0093609BE70E4AD36823EA0E03D3609EE7FC
:102AFC000B4A536823EA0E035360A1E7084A136894
:102B0C0023EA0E031360A4E702B070BD000022108C
:102B1C00000031100010024000000140000801408C
:102B2C0000040140002808DB0901C9B200F1604033
:102B3C0000F5614080F80013704700F00F000901A8
:102B4C00C9B2014B1954704714ED00E000B500F008
:102B5C000700C0F1070CBCF1040F28BF4FF0040CA8
:102B6C00031D062B0FD9C31E4FF0FF3E0EFA0CF0BF
:102B7C0021EA000199400EFA03FE22EA0E0241EA14
:102B8C0002005DF804FB0023EEE70000074AD3685F
:102B9C0023F4E0631B041B0C000200F4E06003430D
:102BAC0043F0BF6343F40033D360704700ED00E0A3
:102BBC0010B50446054BD868C0F30220FFF7C6FFDA
:102BCC0001462046FFF7AEFF10BD00BF00ED00E050
:102BDC000138B0F1807F0BD24FF0E0235861054AE9
:102BEC00F02182F823100020986107221A617047A7
:102BFC000120704700ED00E07047000010B504465E
:102C0C000268136923F44053C1680B431361836852
:102C1C000269134342691A430168CB6823F4B05329
:102C2C0023F00C031343CB600268536923F4407305
:102C3C0081690B4353610268134B9A4220D0FFF712
:102C4C0043FE024602EB820202EB820263689B00A7
:102C5C00B2FBF3F20D48A0FB02314909642303FBDC
:102C6C0011231B013233A0FB03035B0903F0F002B9
:102C7C0002EB011203F00F03216813448B6010BDAB
:102C8C00FFF732FE0246DDE7003801401F85EB51AD
:102C9C002DE9F84305460F4616469946DDF8208087
:102CAC002B681C6837EA04040CBF01240024B442CE
:102CBC002DD1B8F1FF3FF3D0B8F1000F05D0FFF7DD
:102CCC00E5FAA0EB09004045EAD92A6802F10C03A9
:102CDC0053E8003F23F4D0730C3242E80031002952
:102CEC00F3D12A6802F1140353E8003F23F00103E7
:102CFC00143242E800310029F3D1202385F8413009
:102D0C0085F84230002385F84030032000E0002095
:102D1C00BDE8F88360B310B5044690F8413013B3A6
:102D2C00242384F841302268D36823F40053D36001
:102D3C002046FFF763FF2268136923F49043136165
:102D4C002268536923F02A0353612268D36843F441
:102D5C000053D36000206064202384F8413084F851
:102D6C004230606310BD80F84030FEF76BFCD7E753
:102D7C00012070472DE9F04182B01E4690F8413099
:102D8C00DBB2202B4BD104460D46904600294AD08D
:102D9C000AB9012044E000234364212380F8413028
:102DAC00FFF774FA0746A4F82480A4F82680A368D9
:102DBC00B3F5805F02D04FF000080FE02369FBB140
:102DCC004FF000080AE038F8023B2268C3F308030E
:102DDC005360E28C92B2013A92B2E284E38C9BB2E1
:102DEC008BB100963B46002280212046FFF750FF16
:102DFC00D8B9002DE7D015F8012B23685A60E8E705
:102E0C00A8460025EAE700963B46002240212046D2
:102E1C00FFF73EFF58B9202384F8413000E0022030
:102E2C0002B0BDE8F0810120FAE70320F8E70320A7
:102E3C00F6E70000FFF7E0FE0B480C490C4A0023B4
:102E4C0002E0D458C4500433C4188C42F9D3094A54
:102E5C00094C002301E013600432A242FBD300F0C2
:102E6C000FF8FDF7BFFF7047000000206400002042
:102E7C00A0440008680000206C030020FEE700005E
:102E8C0070B500260C4D0D4C641BA410A64209D144
:102E9C0000F05EFF00260A4D0A4C641BA410A642EB
:102EAC0005D170BD55F8043B98470136EEE755F84F
:102EBC00043B98470136F2E7984400089844000810
:102ECC00984400089C4400080A44914200F1FF33E6
:102EDC0000D1704710B511F8014B914203F8014F26
:102EEC00F9D110BD0A7870B56AB970BD9A4209D192
:102EFC000C46054614F8013F002BF6D015F8016F6F
:102F0C009E42F7D001300378002BEFD11846ECE746
:102F1C0003460244934200D1704703F8011BF9E7C2
:102F2C0003685A004CBF43F0004323F0004318449D
:102F3C00704700BF2DE9F04741B301F1FF3805465A
:102F4C00164647460024E11901EBD171491005EBF7
:102F5C00C10A5046FFF7E4FF884503464FEAC10912
:102F6C000ED009F10800B34228440BD8FFF7D8FF64
:102F7C000138B04201F10104E5D35046BDE8F087B9
:102F8C00B042FAD98C4201D04F1EDCE74FF0000A58
:102F9C005046BDE8F08700BF012809D0022805D0B3
:102FAC00044B00280CBF184600207047024870479D
:102FBC00024870478D3600089D360008953600088B
:102FCC0030B5224B044683B08D1E3BB3284601A975
:102FDC00AFF30080E8B101992A46FFF7ABFF014639
:102FEC00B8B1FFF79DFF4B68A064012B2BD0002BD1
:102FFC0026DB081DFFF794FF002323650368E064BC
:10300C00002B12DBFFF78CFF03460020236103B07B
:10301C0030BD00230920236103B030BD0C4B0D499A
:10302C001846C91AC9100191D6E7C3F30360FFF71C
:10303C00B3FF031E0CBF09200020236103B030BD79
:10304C000123081DD9E700230520DFE7000000005D
:10305C000844000898440008036810B5DA070446D1
:10306C0006D49B0700F1500009D5FDF775F82368CD
:10307C00590709D51A070ED5DB0613D510BDFDF778
:10308C0063F823685907F5D404F1D800FDF76CF800
:10309C0023681A07F0D404F5AC70FDF76DF82368BB
:1030AC00DB06EBD404F5EC70BDE81040FDF7A8B8D6
:1030BC000346006800B11844704700BF704700BF5A
:1030CC0070B504460E462046316CFFF779FF054675
:1030DC0098B9D6F840C03246214601202369C4F87D
:1030EC0014C098470828EED0072806D12846316C22
:1030FC00FFF7E4FF301DFDF71BF800F0DDFD00BF0E
:10310C002DE9F0474FF0000AADF5767D0DF10C0E70
:10311C0001F1040CC768D0F8188006461446BCE8C8
:10312C000F00AEE80F00BCE80F00AEE80F00BCE8E3
:10313C000F00AEE80F009CE80F0002AD8EE80F0008
:10314C00C5F800A021E02B6C4FF4F4722946736192
:10315C007CA8FFF7B9FE3146504633697CAA9847E4
:10316C008A9C8246AC640120334632464946CDE9FE
:10317C000058B847044630BB4FF4F47228467CA97B
:10318C00FFF7A2FEBAF1080F1AD13046296CFFF7EF
:10319C0017FF04F109095FFA89FA04460028D2D016
:1031AC00A96B3346A96432460120CDE900584AF098
:1031BC001001B84738B920460DF5767DBDE8F0878B
:1031CC00BAF1070F05D0092420460DF5767DBDE830
:1031DC00F0872046296CFFF771FF03A8FCF7A8FFC6
:1031EC00F0B54FF0FF37CB6BFBB00B6401AC01F1CA
:1031FC00040C0E460546BCE80F000FC4BCE80F00DB
:10320C000FC4BCE80F000FC49CE80F0084E80F004B
:10321C00009706E06A4629462B6998470828044619
:10322C0008D128461099FFF7CBFE0028F2D00920D0
:10323C007BB0F0BD6846FFF70FFF062CF7D1314687
:10324C002846FFF73DFF00BF10B414468461DC6BC9
:10325C00C16000221C64194610BCFFF751BF00BFAF
:10326C0070B54369C6680B64AEB90A460369044677
:10327C000D46014602209847072805D008280FD193
:10328C0029462046FFF71CFF3046296CFFF716FF36
:10329C00281DFCF74DFF0122FFF732FF00F00CFD5B
:1032AC0000F00AFDC26832B1D1F83CC00022C1F86E
:1032BC0040C0FFF725BFFFF793BF00BF052915D806
:1032CC00DFE801F00A031403030501207047436C87
:1032DC00009A00201360704743B90F2A06D800EB00
:1032EC0082025368009A00201360704702207047D6
:1032FC00002300B585B00A4603A900911946FFF7D3
:10330C00DDFF039805B05DF804FB00BF052915D857
:10331C00DFE801F00A031403030501207047009B4A
:10332C001B6843640020704743B90F2A06D8009BE2
:10333C0000EB82021B68002053607047022070472C
:10334C00002310B584B003AC039200940A461946CE
:10335C00FFF7DCFF04B010BD70B54FF0FF36D36B38
:10336C00ADF5107D13640DF15C0E02F1040C0546F5
:10337C000C46BCE80F00AEE80F00BCE80F00AEE84E
:10338C000F00BCE80F00AEE80F009CE80F008EE8C1
:10339C000F00169612E00C2116A86A46FFF7D0FF14
:1033AC00214616A8A84778B969460820049B16AA96
:1033BC0098470528064608D0092805D0684626995E
:1033CC00FFF7FEFD0028E6D0092616A8FFF744FEFD
:1033DC0030460DF5107D70BD2DE9F04F1646CA6CC8
:1033EC000D4652F8041B89B000F0030C0692002B1A
:1033FC0079D002240F0C8DF81D700904FFB20591D1
:10340C0002EB8702296DBCF1020F08BFAA6B11F009
:10341C0001088DF81C4009D0304605A900F0CEFA01
:10342C00002856D1082009B0BDE8F08F1768002F8E
:10343C00F2D0E3469A4600F00801CDE90118BAF142
:10344C00020F4CD01788548802F10409AA6C24F09E
:10345C0001030F21304603EB0208FFF749FF8045BB
:10346C003BD827F0010202EB0803834294BF0023F0
:10347C000123640004F0020407F001072743012F25
:10348C004ED0022F35D027BBBBF1000F02D0002B42
:10349C0040F0D48009F104021768002FCFD13046D8
:1034AC0005A9DDF8088000F089FA90B9B8F1000F91
:1034BC00B8D00F213046FFF71BFF0E2102463046D5
:1034CC00FFF73EFF0F2130466C4AFFF739FF07200C
:1034DC0000E0092009B0BDE8F08F0023C9E754686B
:1034EC0002F10809B2E70902032405918DF81D3099
:1034FC0088E7D9F8004024F00048BBF1000F47D111
:10350C002BB1019B002B5CD0B8F1000F59D0002CD3
:10351C0001DA09F1040908F1010209EB8202BBE7A7
:10352C00BBF1000F1CD1C3B1D9F80430D9F800207D
:10353C00991C4FEAD272CCD005F158040133049493
:10354C0000F08F8009F10400FFF7B2FD04AB0146D7
:10355C002846AFF30080002859D109F108029BE7F7
:10356C000D213046FFF7C4FE2C6A8442F5D1AB6ABC
:10357C009945F2D14846FFF7D3FC0F21024630465D
:10358C00FFF7DEFE2A4600213046FFF7D9FE9EE704
:10359C000D213046FFF7ACFE2F6A8742B7D1AB6ADC
:1035AC009945B4D100240423C5E90B434B44C5F819
:1035BC0028806B63D9F80030A34259DB01230293B6
:1035CC00A9E705F15803CDF80CB00024B34609F176
:1035DC0004071E460BE038460496FFF769FD0022EF
:1035EC00014604AB2846AFF30080043700BB4445CA
:1035FC0004F10104EFD10D215846FFF779FE024684
:10360C00049B0620C5E90823C5F8289062E7044608
:10361C000D213046FFF76CFE049E022C08BFEE62B3
:10362C00286208BF05F12C060620C5E9096951E797
:10363C005E46D9F80040DDF80CB068E74846FFF765
:10364C006FFC09F104020446AA632846AFF300801C
:10365C0000283FF43EAF22460F213046FFF770FEA4
:10366C0035E730460D21FFF743FE26462862DBE79F
:10367C0008F1010209EB82007DE700BF00000000A9
:10368C000023FFF7A9BE00BF0123FFF7A5BE00BFB3
:10369C000223FFF7A1BE00BF2DE9F04105461446F9
:1036AC00C4B0052900F2D780DFE811F012002A001F
:1036BC00D500690090000600836B002C40F0CB8095
:1036CC0053F8042B42648363002044B0BDE8F081BE
:1036DC00002B40F0C0804FF0010E816B2A1DA0B270
:1036EC000EFA03FC1CEA000F1CBF51F8046B42F8E5
:1036FC0023600133102BF3D1A004E5D4A963E3E7D5
:10370C00012B4FEA1447A4B200F08580052B40F042
:10371C00A28007EB0408B8F1200F00F29C800F2F59
:10372C0040F29B80002CCFD00268560700F11A8122
:10373C00019302AE3046FCF71BFD4FEA440CA7F197
:10374C001002A86B019B0CF1FF3C06EBC2020CF1C2
:10375C00010C043A00EB8C0150F8044B884242F8FF
:10376C00044FF9D1012B00F0E0800F2FA86302D891
:10377C0022A8FCF7F1FC3046FCF7F6FCA4E7032B7F
:10378C0069D11FFA84F808EB1443102B4FEA144448
:10379C0061D80368180700F1C08022AE3046FCF7F0
:1037AC000DFD4FEA4801AF6B06EBC4024B1E41B155
:1037BC00B81A1158013B42F8041B591CF9D107EBFC
:1037CC00C8073046AF63FCF7D7FC7DE7002B42D12E
:1037DC00102C40D80368DE0600F1978022AE3046EC
:1037EC00FCF718FD012700233046A96B07FA03F2FA
:1037FC00224203F1010305D00A4652F804CB1146CC
:10380C00C0F800C0042B00F10400EFD13046A963CE
:10381C00FCF7F6FC58E73A19102A1CD8102F1AD0CE
:10382C000268D00708D5284622F0030240F8502B36
:10383C000193FCF78DFC019B22AE30460193FCF703
:10384C0087FCA96B019B002C58D104313046A9632D
:10385C00FCF77AFC38E7022037E7B8F1100F026862
:10386C0065D9D10772D522F0010242F0020240F86C
:10387C00502B0193FCF774FC2A68019B12F0040F87
:10388C0066D122AE30460193FCF76AFC02A8FCF725
:10389C006FFCC7F110025200A96B019B541EA8F1DA
:1038AC00100C06EBC7020134043A01EB840051F80A
:1038BC00044B814242F8044FF9D1BCF1000F59D0AE
:1038CC00102F3A4638BF10224FEA4C0C02AE103A79
:1038DC000CF1FF3C06EBC20239E7284622F001024C
:1038EC0042F0020240F8502B22AE0193FCF738FC58
:1038FC003046FCF735FCA96B24B3019B64004FF0F8
:10390C00000C013C06EBC702CDE723F0100303606B
:10391C0000F5EC70FCF77EFC60E723F008032B60ED
:10392C0005F5AC70FCF74AFC37E722AE8DE7D10702
:10393C00D3D422AE30460193FCF712FCA96B019B49
:10394C00002CDBD13046FCF707FCBDE6540798D5BC
:10395C00284622F0040240F8D82B0193FCF708FC0F
:10396C00019B8EE722F0040240F8D82B0193FCF760
:10397C00FFFBDEE6012B3FF468AF0F2FA9633FF688
:10398C00A3AEDFE7027A03467AB9427AA2B14FF0CE
:10399C00030C4168013A427208680A1D5A6002021F
:1039AC0083F808C0000E1A6070470068013A1A725A
:1039BC0002021A60000E7047B02070472DE9F043E8
:1039CC004FF0000806460D4685B02846FFF7DAFF93
:1039DC00B028044600F0128107065CD500F0F00315
:1039EC00A02B1AD030D8802B00F08380902B27D1BD
:1039FC0000F00D030D2B23D0002302AF194600F06D
:103A0C000F0200973046FFF759FC00230D22194690
:103A1C0030460097FFF77AFCD7E7C3434FF47F6239
:103A2C0003F007031A41010702F47F6201D542F447
:103A3C008042002330461946FFF72EFE0028C4D0E2
:103A4C00092005B0BDE8F083B02B69D0C02B3ED166
:103A5C00C62800F0BF80C72800F0D58000F0F8031E
:103A6C00C02B00F0E280C82800F0ED80C928E7D117
:103A7C002846FFF787FF052301210446220304F0A3
:103A8C000F0402F470220C4430462243FFF704FE6C
:103A9C0000289AD0D4E78300DBB21F1D00230DF160
:103AAC00080919460D223046CDF80090FFF706FCA8
:103ABC00029B60064CBFDF1BFF1800230D22304613
:103ACC001946CDF800900297FFF720FC7DE700F037
:103ADC00F803D02BB4D100F00702013205230121E9
:103AEC00304642F40022FFF7D7FD00283FF46DAFBB
:103AFC00A6E72846FFF746FF24022043B0F5004F07
:103B0C009ED00023040119463046A2B2FFF7C4FD33
:103B1C00002895D114F4004F18BF4FF0010854E75A
:103B2C00A0F1B103042B00F2B380DFE803F0491DD0
:103B3C00160C0300002303AA009230460D221946EE
:103B4C00FFF7BCFB41E70023052130461A46FFF77F
:103B5C00A3FD00283FF439AF72E72846FFF712FFA8
:103B6C0001230446194689E700230DF108090D22AB
:103B7C0019463046CDF80090FFF7A0FB2846FFF71A
:103B8C0001FF02064FF00207029C0BD500F07F00EC
:103B9C00B840044428460294FFF7F4FE030607F1EC
:103BAC000707F3D40023B84004F5017404440D2234
:103BBC0030461946CDF800900294FFF7A7FB04E7B6
:103BCC002846FFF7DFFE431EDBB20E2B02467FF6C4
:103BDC0030AF35E72846FFF7D5FE04460323220312
:103BEC0004F00F0402F470220134194630462243CB
:103BFC00FFF752FD00283FF4E8AE21E7B8F1000FC3
:103C0C0036D000201DE72846FFF7BCFE431EDBB272
:103C1C000E2B02463FF614AF002304213046FFF76B
:103C2C003BFD00283FF4D1AE0AE7032300F00F025E
:103C3C0001323046194642F42022FFF72DFD0028B0
:103C4C003FF4C3AEFCE62846FFF79CFE024601217A
:103C5C0002F0F00402F00F0210340A44052330463F
:103C6C0042EA0432FFF718FD00283FF4AEAEE7E657
:103C7C0002AC434641460E2230460094FFF71EFB31
:103C8C000F224346414630460094FFF73FFBB8E70E
:103C9C0000F0FC03B42B3FF4D3AE012300F0070279
:103CAC001A443046194642F40022FFF7F5FC00286E
:103CBC003FF48BAEC4E600BF062008B500F02CF82C
:103CCC000120FDF72CF81F2938B505460C4604D900
:103CDC00162303604FF0FF3038BDC26B12B152F89F
:103CEC0021304BB9284600F031F8224601462846CF
:103CFC00BDE8384000F018B8012B0AD0591C03D18C
:103D0C00162303600120E7E70021204642F8241027
:103D1C0098470020E0E70000024B01461868FFF7C7
:103D2C00D2BF00BF1400002038B50023064D044656
:103D3C00084611462B60FCF7EDFF431C02D12B68A3
:103D4C0003B1236038BD00BF68030020FCF7E5BF5A
:103D5C00F8B500BFF8BC08BC9E467047F8B500BF6C
:083D6C00F8BC08BC9E4670473C
:103D7400FFAAFF0000FFAA55FFAAFF0000FFAA55F3
:103D8400000000003344667700AAAA550000000032
:103D940020417267756D656E7420000046756E6310
:103DA40074696F6E200000002049676E6F7265644D
:103DB40020000000204661696C7572657320000064
:103DC40020546573747320002D2D2D2D2D2D2D2D34
:103DD4002D2D2D2D2D2D2D2D2D2D2D2D2D2D2D003C
:103DE4002057617320000000204578706563746576
:103DF400642000002E2000004641494C00000000D1
:103E040050415353000000004F4B0000556E69743D
:103E14007920746573742072756E2000206F66209B
:103E2400000000002D680000000000002D2D6865D2
:103E34006C70000052756E73206120736572696541
:103E440073206F6620756E69742074657374732EA5
:103E5400000000005768656E206E6F20666C616715
:103E6400206973207370656369666965642C2061D9
:103E74006C6C207465737473206172652072756E46
:103E84002E0000004F7074696F6E616C20666C6167
:103E940067733A0020202D76202020202020202027
:103EA4002020566572626F7365206F757470757427
:103EB4003A2073686F7720616C6C20746573747337
:103EC400206578656375746564206576656E206920
:103ED40066207468657920706173730020202D73E7
:103EE4002020202020202020202053696C656E741F
:103EF400206D6F64653A206D696E696D616C206F29
:103F040075747075742073686F77696E67206F6E4F
:103F14006C792074657374206661696C757265735D
:103F24000000000020202D67204E414D4520202018
:103F340020204F6E6C792072756E207465737473D3
:103F440020696E2067726F757073207468617420C5
:103F5400636F6E7461696E2074686520737472692E
:103F64006E67204E414D450020202D6E204E414D60
:103F74004520202020204F6E6C792072756E2074AD
:103F8400657374732077686F7365206E616D652047
:103F9400636F6E7461696E732074686520737472E4
:103FA400696E67204E414D450000000020202D72AF
:103FB400204E554D42455220202052657065617453
:103FC40065646C792072756E20616C6C2074657305
:103FD4007473204E554D4245522074696D657300CB
:103FE40020202D682C202D2D68656C7020204469BC
:103FF40073706C617920746869732068656C7020D3
:104004006D657373616765004D6F726520696E66D7
:104014006F726D6174696F6E2061626F7574205583
:104024006E6974793A2068747470733A2F2F7777B5
:10403400772E7468726F77746865737769746368D0
:104044002E6F72672F756E69747900002D760000EB
:104054002D7300002D6700002D6E00002D720000EE
:10406400200000005445535428656570726F6D5FDD
:104074006472697665722C20636865636B5F6C6932
:104084006E6B5F7375636365737329005465737432
:10409400732F7461726765745F74657374732F65CD
:1040A4006570726F6D5F6472697665722F65657095
:1040B400726F6D5F746573742E630000636865636B
:1040C4006B5F6C696E6B5F7375636365737300001C
:1040D400656570726F6D5F64726976657200000069
:1040E4005445535428656570726F6D5F64726976C8
:1040F40065722C2072616E646F6D5F77726974658E
:104104005F616E645F726561645F627974655F7339
:10411400756363657373290072616E646F6D5F7795
:10412400726974655F616E645F726561645F627910
:1041340074655F737563636573730000544553540A
:1041440028656570726F6D5F6472697665722C2084
:1041540063757272656E745F616464726573735FB4
:10416400726561645F627974655F737563636573B7
:104174007329000063757272656E745F61646472A2
:104184006573735F726561645F627974655F73758B
:104194006363657373000000544553542865657068
:1041A400726F6D5F6472697665722C206D756C74C4
:1041B40069706C655F63757272656E745F61646467
:1041C400726573735F726561645F627974655F734E
:1041D40075636365737329006D756C7469706C65C0
:1041E4005F63757272656E745F6164647265737324
:1041F4005F726561645F627974655F73756363653B
:10420400737300005445535428656570726F6D5F75
:104214006472697665722C20706167655F385F73BC
:10422400657175656E7469616C5F726561645F73F5
:104234007563636573732900706167655F385F73C5
:10424400657175656E7469616C5F726561645F73D5
:104254007563636573730000544553542865657032
:10426400726F6D5F6472697665722C207061676528
:104274005F36385F73657175656E7469616C5F7202
:104284006561645F7375636365737329000000007F
:10429400706167655F36385F73657175656E7469E3
:1042A400616C5F726561645F7375636365737300EA
:1042B4005445535428656570726F6D5F64726976F6
:1042C40065722C20706167655F3132385F73657188
:1042D40075656E7469616C5F726561645F73756343
:1042E4006365737329000000706167655F3132385C
:1042F4005F73657175656E7469616C5F7265616425
:104304005F73756363657373000000005445535411
:1043140028656570726F6D5F6472697665722C20B2
:10432400706167655F385F77726974655F73756321
:104334006365737329000000706167655F385F7798
:10434400726974655F73756363657373000000005D
:104354005445535428656570726F6D5F6472697655
:1043640065722C20706167655F36385F7772697497
:10437400655F7375636365737329000070616765B6
:104384005F36385F77726974655F737563636573ED
:10439400730000005445535428656570726F6D5F57
:1043A4006472697665722C20706167655F3132389A
:1043B4005F77726974655F737563636573732900EE
:1043C400706167655F3132385F77726974655F73F6
:1043D4007563636573730000010200000203040542
:1043E400060708090A0B0C0D0E0F10100000000040
:1043F40001020304000000000000000001020304A5
:044404000607080996
:1044080004BDFF7FB0B0B08018BDFF7F0100000081
:10441800B4EBFF7FB0A9028044ECFF7FB0B0A88066
:1044280094ECFF7F010000009CECFF7FB0B0AA80F5
:10443800D4ECFF7FAE75B280ACEDFF7FAB3F3A8026
:104448000CEEFF7F010000001CEEFF7FB0B0AA80D9
:1044580058EEFF7F0100000004EFFF7FAA0FB28033
:104468007CEFFF7FB0AF08801CF2FF7F01000000E7
:104478002CF2FF7FAC3F038010F5FF7F01000000A6
:1044880040F5FF7FB0AD048034F8FF7F01000000E5
:0444980051030008C4
:04449C0029030008E8
:1044A00000005500D80100200100000010000000AD
:1044B0000024F4001800002000000000300200205A
:1044C000980200200003002000000000000000000F
:1044D00000000000000000000000000000000000DC
:1044E00000000000000000000000000000000000CC
:1044F00000000000000000000000000000000000BC
:0445000000000000B7
:0400000508002E4180
:00000001FF
